{
  "contractName": "MemeToken",
  "abi": [
    {
      "constant": true,
      "inputs": [],
      "name": "totalPayments",
      "outputs": [
        {
          "name": "",
          "type": "uint256"
        }
      ],
      "payable": false,
      "stateMutability": "view",
      "type": "function"
    },
    {
      "constant": false,
      "inputs": [
        {
          "name": "_to",
          "type": "address"
        },
        {
          "name": "_deedId",
          "type": "uint256"
        }
      ],
      "name": "approve",
      "outputs": [],
      "payable": true,
      "stateMutability": "payable",
      "type": "function"
    },
    {
      "constant": true,
      "inputs": [
        {
          "name": "_owner",
          "type": "address"
        }
      ],
      "name": "deedsOf",
      "outputs": [
        {
          "name": "_ownedDeedIds",
          "type": "uint256[]"
        }
      ],
      "payable": false,
      "stateMutability": "view",
      "type": "function"
    },
    {
      "constant": true,
      "inputs": [
        {
          "name": "_deedId",
          "type": "uint256"
        }
      ],
      "name": "approvedFor",
      "outputs": [
        {
          "name": "",
          "type": "address"
        }
      ],
      "payable": false,
      "stateMutability": "view",
      "type": "function"
    },
    {
      "constant": false,
      "inputs": [],
      "name": "unpause",
      "outputs": [],
      "payable": false,
      "stateMutability": "nonpayable",
      "type": "function"
    },
    {
      "constant": true,
      "inputs": [
        {
          "name": "_owner",
          "type": "address"
        },
        {
          "name": "_index",
          "type": "uint256"
        }
      ],
      "name": "deedOfOwnerByIndex",
      "outputs": [
        {
          "name": "_deedId",
          "type": "uint256"
        }
      ],
      "payable": false,
      "stateMutability": "view",
      "type": "function"
    },
    {
      "constant": true,
      "inputs": [],
      "name": "url",
      "outputs": [
        {
          "name": "",
          "type": "string"
        }
      ],
      "payable": false,
      "stateMutability": "view",
      "type": "function"
    },
    {
      "constant": true,
      "inputs": [],
      "name": "paused",
      "outputs": [
        {
          "name": "",
          "type": "bool"
        }
      ],
      "payable": false,
      "stateMutability": "view",
      "type": "function"
    },
    {
      "constant": false,
      "inputs": [],
      "name": "withdrawPayments",
      "outputs": [],
      "payable": false,
      "stateMutability": "nonpayable",
      "type": "function"
    },
    {
      "constant": true,
      "inputs": [
        {
          "name": "_deedId",
          "type": "uint256"
        }
      ],
      "name": "ownerOf",
      "outputs": [
        {
          "name": "_owner",
          "type": "address"
        }
      ],
      "payable": false,
      "stateMutability": "view",
      "type": "function"
    },
    {
      "constant": false,
      "inputs": [],
      "name": "pause",
      "outputs": [],
      "payable": false,
      "stateMutability": "nonpayable",
      "type": "function"
    },
    {
      "constant": true,
      "inputs": [],
      "name": "owner",
      "outputs": [
        {
          "name": "",
          "type": "address"
        }
      ],
      "payable": false,
      "stateMutability": "view",
      "type": "function"
    },
    {
      "constant": true,
      "inputs": [
        {
          "name": "_owner",
          "type": "address"
        }
      ],
      "name": "countOfDeedsByOwner",
      "outputs": [
        {
          "name": "_count",
          "type": "uint256"
        }
      ],
      "payable": false,
      "stateMutability": "view",
      "type": "function"
    },
    {
      "constant": false,
      "inputs": [
        {
          "name": "_to",
          "type": "address"
        },
        {
          "name": "_deedId",
          "type": "uint256"
        }
      ],
      "name": "transfer",
      "outputs": [],
      "payable": false,
      "stateMutability": "nonpayable",
      "type": "function"
    },
    {
      "constant": false,
      "inputs": [
        {
          "name": "_deedId",
          "type": "uint256"
        }
      ],
      "name": "takeOwnership",
      "outputs": [],
      "payable": true,
      "stateMutability": "payable",
      "type": "function"
    },
    {
      "constant": true,
      "inputs": [],
      "name": "countOfDeeds",
      "outputs": [
        {
          "name": "",
          "type": "uint256"
        }
      ],
      "payable": false,
      "stateMutability": "view",
      "type": "function"
    },
    {
      "constant": true,
      "inputs": [
        {
          "name": "",
          "type": "address"
        }
      ],
      "name": "payments",
      "outputs": [
        {
          "name": "",
          "type": "uint256"
        }
      ],
      "payable": false,
      "stateMutability": "view",
      "type": "function"
    },
    {
      "constant": false,
      "inputs": [
        {
          "name": "newOwner",
          "type": "address"
        }
      ],
      "name": "transferOwnership",
      "outputs": [],
      "payable": false,
      "stateMutability": "nonpayable",
      "type": "function"
    },
    {
      "payable": true,
      "stateMutability": "payable",
      "type": "fallback"
    },
    {
      "anonymous": false,
      "inputs": [
        {
          "indexed": true,
          "name": "id",
          "type": "uint256"
        },
        {
          "indexed": true,
          "name": "name",
          "type": "bytes32"
        },
        {
          "indexed": false,
          "name": "beneficiary",
          "type": "address"
        }
      ],
      "name": "Creation",
      "type": "event"
    },
    {
      "anonymous": false,
      "inputs": [
        {
          "indexed": true,
          "name": "id",
          "type": "uint256"
        },
        {
          "indexed": true,
          "name": "oldOwner",
          "type": "address"
        },
        {
          "indexed": false,
          "name": "oldPrice",
          "type": "uint256"
        },
        {
          "indexed": true,
          "name": "newOwner",
          "type": "address"
        },
        {
          "indexed": false,
          "name": "newPrice",
          "type": "uint256"
        }
      ],
      "name": "Appropriation",
      "type": "event"
    },
    {
      "anonymous": false,
      "inputs": [
        {
          "indexed": true,
          "name": "id",
          "type": "uint256"
        },
        {
          "indexed": true,
          "name": "sender",
          "type": "address"
        },
        {
          "indexed": true,
          "name": "beneficiary",
          "type": "address"
        },
        {
          "indexed": false,
          "name": "amount",
          "type": "uint256"
        }
      ],
      "name": "Payment",
      "type": "event"
    },
    {
      "anonymous": false,
      "inputs": [
        {
          "indexed": true,
          "name": "id",
          "type": "uint256"
        }
      ],
      "name": "Destruction",
      "type": "event"
    },
    {
      "anonymous": false,
      "inputs": [],
      "name": "Pause",
      "type": "event"
    },
    {
      "anonymous": false,
      "inputs": [],
      "name": "Unpause",
      "type": "event"
    },
    {
      "anonymous": false,
      "inputs": [
        {
          "indexed": true,
          "name": "previousOwner",
          "type": "address"
        },
        {
          "indexed": true,
          "name": "newOwner",
          "type": "address"
        }
      ],
      "name": "OwnershipTransferred",
      "type": "event"
    },
    {
      "anonymous": false,
      "inputs": [
        {
          "indexed": true,
          "name": "_from",
          "type": "address"
        },
        {
          "indexed": true,
          "name": "_to",
          "type": "address"
        },
        {
          "indexed": true,
          "name": "_deedId",
          "type": "uint256"
        }
      ],
      "name": "Transfer",
      "type": "event"
    },
    {
      "anonymous": false,
      "inputs": [
        {
          "indexed": true,
          "name": "_owner",
          "type": "address"
        },
        {
          "indexed": true,
          "name": "_approved",
          "type": "address"
        },
        {
          "indexed": true,
          "name": "_deedId",
          "type": "uint256"
        }
      ],
      "name": "Approval",
      "type": "event"
    },
    {
      "constant": false,
      "inputs": [],
      "name": "ExampleDeed",
      "outputs": [],
      "payable": false,
      "stateMutability": "nonpayable",
      "type": "function"
    },
    {
      "constant": true,
      "inputs": [],
      "name": "name",
      "outputs": [
        {
          "name": "",
          "type": "string"
        }
      ],
      "payable": false,
      "stateMutability": "pure",
      "type": "function"
    },
    {
      "constant": true,
      "inputs": [],
      "name": "symbol",
      "outputs": [
        {
          "name": "",
          "type": "string"
        }
      ],
      "payable": false,
      "stateMutability": "pure",
      "type": "function"
    },
    {
      "constant": true,
      "inputs": [
        {
          "name": "_interfaceID",
          "type": "bytes4"
        }
      ],
      "name": "supportsInterface",
      "outputs": [
        {
          "name": "",
          "type": "bool"
        }
      ],
      "payable": false,
      "stateMutability": "pure",
      "type": "function"
    },
    {
      "constant": true,
      "inputs": [
        {
          "name": "_deedId",
          "type": "uint256"
        }
      ],
      "name": "deedUri",
      "outputs": [
        {
          "name": "_uri",
          "type": "string"
        }
      ],
      "payable": false,
      "stateMutability": "view",
      "type": "function"
    },
    {
      "constant": true,
      "inputs": [
        {
          "name": "_deedId",
          "type": "uint256"
        }
      ],
      "name": "deedName",
      "outputs": [
        {
          "name": "_name",
          "type": "string"
        }
      ],
      "payable": false,
      "stateMutability": "view",
      "type": "function"
    },
    {
      "constant": true,
      "inputs": [],
      "name": "ids",
      "outputs": [
        {
          "name": "",
          "type": "uint256[]"
        }
      ],
      "payable": false,
      "stateMutability": "view",
      "type": "function"
    },
    {
      "constant": true,
      "inputs": [
        {
          "name": "_deedId",
          "type": "uint256"
        }
      ],
      "name": "deed",
      "outputs": [
        {
          "components": [
            {
              "name": "name",
              "type": "bytes32"
            },
            {
              "name": "beneficiary",
              "type": "address"
            },
            {
              "name": "price",
              "type": "uint256"
            },
            {
              "name": "created",
              "type": "uint256"
            },
            {
              "name": "deleted",
              "type": "uint256"
            }
          ],
          "name": "",
          "type": "tuple"
        }
      ],
      "payable": false,
      "stateMutability": "view",
      "type": "function"
    },
    {
      "constant": false,
      "inputs": [
        {
          "name": "_deedId",
          "type": "uint256"
        }
      ],
      "name": "appropriate",
      "outputs": [],
      "payable": true,
      "stateMutability": "payable",
      "type": "function"
    },
    {
      "constant": false,
      "inputs": [
        {
          "name": "_deedId",
          "type": "uint256"
        }
      ],
      "name": "pay",
      "outputs": [],
      "payable": true,
      "stateMutability": "payable",
      "type": "function"
    },
    {
      "constant": false,
      "inputs": [],
      "name": "withdraw",
      "outputs": [],
      "payable": false,
      "stateMutability": "nonpayable",
      "type": "function"
    },
    {
      "constant": false,
      "inputs": [
        {
          "name": "_name",
          "type": "bytes32"
        },
        {
          "name": "_beneficiary",
          "type": "address"
        }
      ],
      "name": "create",
      "outputs": [],
      "payable": false,
      "stateMutability": "nonpayable",
      "type": "function"
    },
    {
      "constant": false,
      "inputs": [
        {
          "name": "_deedId",
          "type": "uint256"
        }
      ],
      "name": "destroy",
      "outputs": [],
      "payable": false,
      "stateMutability": "nonpayable",
      "type": "function"
    },
    {
      "constant": false,
      "inputs": [
        {
          "name": "_price",
          "type": "uint256"
        }
      ],
      "name": "setCreationPrice",
      "outputs": [],
      "payable": false,
      "stateMutability": "nonpayable",
      "type": "function"
    },
    {
      "constant": false,
      "inputs": [
        {
          "name": "_url",
          "type": "string"
        }
      ],
      "name": "setUrl",
      "outputs": [],
      "payable": false,
      "stateMutability": "nonpayable",
      "type": "function"
    },
    {
      "constant": true,
      "inputs": [
        {
          "name": "_deedId",
          "type": "uint256"
        }
      ],
      "name": "priceOf",
      "outputs": [
        {
          "name": "_price",
          "type": "uint256"
        }
      ],
      "payable": false,
      "stateMutability": "view",
      "type": "function"
    },
    {
      "constant": true,
      "inputs": [
        {
          "name": "_deedId",
          "type": "uint256"
        }
      ],
      "name": "beneficiaryOf",
      "outputs": [
        {
          "name": "_beneficiary",
          "type": "address"
        }
      ],
      "payable": false,
      "stateMutability": "view",
      "type": "function"
    }
  ],
  "bytecode": "0x60606040526000600560146101000a81548160ff0219169083151502179055506000600860006101000a81548160ff021916908315150217905550662386f26fc10000600c556040805190810160405280601381526020017f687474703a2f2f6578616d706c652e636f6d2f00000000000000000000000000815250600d908051906020019062000092929190620000da565b5033600560006101000a81548173ffffffffffffffffffffffffffffffffffffffff021916908373ffffffffffffffffffffffffffffffffffffffff16021790555062000189565b828054600181600116156101000203166002900490600052602060002090601f016020900481019282601f106200011d57805160ff19168380011785556200014e565b828001600101855582156200014e579182015b828111156200014d57825182559160200191906001019062000130565b5b5090506200015d919062000161565b5090565b6200018691905b808211156200018257600081600090555060010162000168565b5090565b90565b61366280620001996000396000f3006060604052600436106101b6576000357c0100000000000000000000000000000000000000000000000000000000900463ffffffff1680625b4487146101b857806301ffc9a7146101e157806305035a9f1461021757806306fdde031461024d578063095ea7b314610276578063124cfc8c1461028d57806317c35e88146102c3578063252498a2146102f957806326d3df611461031b5780632a6dd48f146103515780633ccfd60b146103875780633f4ba83a1461039c57806353270910146103b15780635600f04f146103e75780635c975abb146104105780636103d70b146104395780636352211e1461044e578063663ff5a9146104845780638456cb59146104a65780638da5cb5b146104bb57806392efd277146104e457806395d89b411461051a5780639d11877014610543578063a9059cbb14610565578063a983143714610587578063b2e6ceeb146105a9578063b9186d7d146105c0578063b929b628146105f6578063b95d2a531461060b578063c290d69114610641578063c34588ba14610658578063e2982c2114610681578063e7657e15146106b7578063f07c44c2146106e0578063f2fde38b146106f7575b005b34156101c357600080fd5b6101cb610719565b6040516101d8919061345d565b60405180910390f35b34156101ec57600080fd5b61020160046101fc9036906131a8565b61071f565b60405161020e91906133e3565b60405180910390f35b341561022257600080fd5b6102376004610232903690613212565b610a3f565b6040516102449190613442565b60405180910390f35b341561025857600080fd5b610260610af3565b60405161026d9190613420565b60405180910390f35b61028b6004610286903690613130565b610b36565b005b341561029857600080fd5b6102ad60046102a8903690613212565b610d08565b6040516102ba91906133a6565b60405180910390f35b34156102ce57600080fd5b6102e360046102de903690613212565b610d6f565b6040516102f09190613420565b60405180910390f35b341561030457600080fd5b61031960046103149036906131d1565b610de9565b005b341561032657600080fd5b61033b6004610336903690613107565b610e5f565b60405161034891906133c1565b60405180910390f35b341561035c57600080fd5b610371600461036c903690613212565b610f38565b60405161037e91906133a6565b60405180910390f35b341561039257600080fd5b61039a610f75565b005b34156103a757600080fd5b6103af6110c5565b005b34156103bc57600080fd5b6103d160046103cc903690613130565b611185565b6040516103de919061345d565b60405180910390f35b34156103f257600080fd5b6103fa611272565b60405161040791906133fe565b60405180910390f35b341561041b57600080fd5b610423611310565b60405161043091906133e3565b60405180910390f35b341561044457600080fd5b61044c611323565b005b341561045957600080fd5b61046e6004610469903690613212565b611442565b60405161047b91906133a6565b60405180910390f35b341561048f57600080fd5b6104a4600461049f90369061316c565b6114ed565b005b34156104b157600080fd5b6104b9611747565b005b34156104c657600080fd5b6104ce611808565b6040516104db91906133a6565b60405180910390f35b34156104ef57600080fd5b61050460046104ff903690613107565b61182e565b604051610511919061345d565b60405180910390f35b341561052557600080fd5b61052d6118b5565b60405161053a9190613420565b60405180910390f35b341561054e57600080fd5b610563600461055e903690613212565b6118f8565b005b341561057057600080fd5b6105856004610580903690613130565b6119cf565b005b341561059257600080fd5b6105a760046105a2903690613212565b611a4d565b005b6105be60046105b9903690613212565b611ab3565b005b34156105cb57600080fd5b6105e060046105db903690613212565b611b36565b6040516105ed919061345d565b60405180910390f35b341561060157600080fd5b610609611b7d565b005b341561061657600080fd5b61062b6004610626903690613212565b611b7f565b6040516106389190613420565b60405180910390f35b6106566004610651903690613212565b611c9c565b005b341561066357600080fd5b61066b611d6f565b604051610678919061345d565b60405180910390f35b341561068c57600080fd5b6106a1600461069c903690613107565b611d78565b6040516106ae919061345d565b60405180910390f35b34156106c257600080fd5b6106ca611d90565b6040516106d791906133c1565b60405180910390f35b6106f560046106f0903690613212565b611dee565b005b341561070257600080fd5b6107176004610712903690613107565b612031565b005b60075481565b600060405180807f737570706f727473496e74657266616365286279746573342900000000000000815250601901905060405180910390207bffffffffffffffffffffffffffffffffffffffffffffffffffffffff1916827bffffffffffffffffffffffffffffffffffffffffffffffffffffffff1916148061094d575060405180807f74616b654f776e6572736869702875696e7432353629000000000000000000008152506016019050604051809103902060405180807f617070726f766528616464726573732c75696e743235362900000000000000008152506018019050604051809103902060405180807f646565644f664f776e65724279496e64657828616464726573732c75696e743281526020017f35362900000000000000000000000000000000000000000000000000000000008152506023019050604051809103902060405180807f636f756e744f66446565647342794f776e657228616464726573732900000000815250601c019050604051809103902060405180807f636f756e744f6644656564732829000000000000000000000000000000000000815250600e019050604051809103902060405180807f6f776e65724f662875696e7432353629000000000000000000000000000000008152506010019050604051809103902018181818187bffffffffffffffffffffffffffffffffffffffffffffffffffffffff1916827bffffffffffffffffffffffffffffffffffffffffffffffffffffffff1916145b80610a38575060405180807f646565645572692875696e7432353629000000000000000000000000000000008152506010019050604051809103902060405180807f73796d626f6c28290000000000000000000000000000000000000000000000008152506008019050604051809103902060405180807f6e616d65282900000000000000000000000000000000000000000000000000008152506006019050604051809103902018187bffffffffffffffffffffffffffffffffffffffffffffffffffffffff1916827bffffffffffffffffffffffffffffffffffffffffffffffffffffffff1916145b9050919050565b610a47612edf565b6009600083815260200190815260200160002060a060405190810160405290816000820154600019166000191681526020016001820160009054906101000a900473ffffffffffffffffffffffffffffffffffffffff1673ffffffffffffffffffffffffffffffffffffffff1673ffffffffffffffffffffffffffffffffffffffff16815260200160028201548152602001600382015481526020016004820154815250509050919050565b610afb612f28565b6040805190810160405280600981526020017f4d656d65546f6b656e0000000000000000000000000000000000000000000000815250905090565b803373ffffffffffffffffffffffffffffffffffffffff166001600083815260200190815260200160002060009054906101000a900473ffffffffffffffffffffffffffffffffffffffff1673ffffffffffffffffffffffffffffffffffffffff16141515610ba457600080fd5b3373ffffffffffffffffffffffffffffffffffffffff168373ffffffffffffffffffffffffffffffffffffffff1614151515610bdf57600080fd5b600073ffffffffffffffffffffffffffffffffffffffff168373ffffffffffffffffffffffffffffffffffffffff16141580610c505750600073ffffffffffffffffffffffffffffffffffffffff16610c3783610f38565b73ffffffffffffffffffffffffffffffffffffffff1614155b15610cb157818373ffffffffffffffffffffffffffffffffffffffff163373ffffffffffffffffffffffffffffffffffffffff167f8c5be1e5ebec7d5bd14f71427d1e84f3dd0314c0f7b2291e5b200ac8c7c3b92560405160405180910390a45b826002600084815260200190815260200160002060006101000a81548173ffffffffffffffffffffffffffffffffffffffff021916908373ffffffffffffffffffffffffffffffffffffffff160217905550505050565b60008160006009600083815260200190815260200160002060040154141515610d3057600080fd5b6009600084815260200190815260200160002060010160009054906101000a900473ffffffffffffffffffffffffffffffffffffffff16915050919050565b610d77612f28565b81600a600060096000848152602001908152602001600020600001546000191660001916815260200190815260200160002060009054906101000a900460ff161515610dc257600080fd5b610de16009600085815260200190815260200160002060000154612189565b915050919050565b600560009054906101000a900473ffffffffffffffffffffffffffffffffffffffff1673ffffffffffffffffffffffffffffffffffffffff163373ffffffffffffffffffffffffffffffffffffffff16141515610e4557600080fd5b80600d9080519060200190610e5b929190612f3c565b5050565b610e67612fbc565b600073ffffffffffffffffffffffffffffffffffffffff168273ffffffffffffffffffffffffffffffffffffffff1614151515610ea357600080fd5b600360008373ffffffffffffffffffffffffffffffffffffffff1673ffffffffffffffffffffffffffffffffffffffff168152602001908152602001600020805480602002602001604051908101604052809291908181526020018280548015610f2c57602002820191906000526020600020905b815481526020019060010190808311610f18575b50505050509050919050565b60006002600083815260200190815260200160002060009054906101000a900473ffffffffffffffffffffffffffffffffffffffff169050919050565b6000600860009054906101000a900460ff16151515610f9357600080fd5b6001600860006101000a81548160ff021916908315150217905550610fb6611323565b600560009054906101000a900473ffffffffffffffffffffffffffffffffffffffff1673ffffffffffffffffffffffffffffffffffffffff163373ffffffffffffffffffffffffffffffffffffffff1614156110a7576110386007543073ffffffffffffffffffffffffffffffffffffffff163161237690919063ffffffff16565b905060008111156110a657600560009054906101000a900473ffffffffffffffffffffffffffffffffffffffff1673ffffffffffffffffffffffffffffffffffffffff166108fc829081150290604051600060405180830381858888f1935050505015156110a557600080fd5b5b5b6000600860006101000a81548160ff02191690831515021790555050565b600560009054906101000a900473ffffffffffffffffffffffffffffffffffffffff1673ffffffffffffffffffffffffffffffffffffffff163373ffffffffffffffffffffffffffffffffffffffff1614151561112157600080fd5b600560149054906101000a900460ff16151561113c57600080fd5b6000600560146101000a81548160ff0219169083151502179055507f7805862f689e2f13df9f062ff482ad3ad112aca9e0847911ed832e158c525b3360405160405180910390a1565b60008073ffffffffffffffffffffffffffffffffffffffff168373ffffffffffffffffffffffffffffffffffffffff16141515156111c257600080fd5b600360008473ffffffffffffffffffffffffffffffffffffffff1673ffffffffffffffffffffffffffffffffffffffff168152602001908152602001600020805490508210151561121257600080fd5b600360008473ffffffffffffffffffffffffffffffffffffffff1673ffffffffffffffffffffffffffffffffffffffff1681526020019081526020016000208281548110151561125e57fe5b906000526020600020900154905092915050565b600d8054600181600116156101000203166002900480601f0160208091040260200160405190810160405280929190818152602001828054600181600116156101000203166002900480156113085780601f106112dd57610100808354040283529160200191611308565b820191906000526020600020905b8154815290600101906020018083116112eb57829003601f168201915b505050505081565b600560149054906101000a900460ff1681565b600080339150600660008373ffffffffffffffffffffffffffffffffffffffff1673ffffffffffffffffffffffffffffffffffffffff1681526020019081526020016000205490506000811415151561137b57600080fd5b803073ffffffffffffffffffffffffffffffffffffffff1631101515156113a157600080fd5b6113b68160075461237690919063ffffffff16565b6007819055506000600660008473ffffffffffffffffffffffffffffffffffffffff1673ffffffffffffffffffffffffffffffffffffffff168152602001908152602001600020819055508173ffffffffffffffffffffffffffffffffffffffff166108fc829081150290604051600060405180830381858888f19350505050151561143e57fe5b5050565b60008073ffffffffffffffffffffffffffffffffffffffff166001600084815260200190815260200160002060009054906101000a900473ffffffffffffffffffffffffffffffffffffffff1673ffffffffffffffffffffffffffffffffffffffff16141515156114b257600080fd5b6001600083815260200190815260200160002060009054906101000a900473ffffffffffffffffffffffffffffffffffffffff169050919050565b6000600560009054906101000a900473ffffffffffffffffffffffffffffffffffffffff1673ffffffffffffffffffffffffffffffffffffffff163373ffffffffffffffffffffffffffffffffffffffff1614151561154b57600080fd5b82600a6000826000191660001916815260200190815260200160002060009054906101000a900460ff1615151561158157600080fd5b6001600a6000866000191660001916815260200190815260200160002060006101000a81548160ff021916908315150217905550600b805490509150600b80548060010182816115d19190612fd0565b916000526020600020900160008490919091505550611612600560009054906101000a900473ffffffffffffffffffffffffffffffffffffffff168361238f565b60a060405190810160405280856000191681526020018473ffffffffffffffffffffffffffffffffffffffff168152602001600c5481526020014281526020016000815250600960008481526020019081526020016000206000820151816000019060001916905560208201518160010160006101000a81548173ffffffffffffffffffffffffffffffffffffffff021916908373ffffffffffffffffffffffffffffffffffffffff1602179055506040820151816002015560608201518160030155608082015181600401559050508360001916827fd4f393eb55a2d59d363dabf4450dd6d6ee7a0e87e45369cc8b4baff93a0bd94b600560009054906101000a900473ffffffffffffffffffffffffffffffffffffffff1660405161173991906133a6565b60405180910390a350505050565b600560009054906101000a900473ffffffffffffffffffffffffffffffffffffffff1673ffffffffffffffffffffffffffffffffffffffff163373ffffffffffffffffffffffffffffffffffffffff161415156117a357600080fd5b600560149054906101000a900460ff161515156117bf57600080fd5b6001600560146101000a81548160ff0219169083151502179055507f6985a02210a168e66602d3235cb6db0e70f92b3ba4d376a33c0f3d9434bff62560405160405180910390a1565b600560009054906101000a900473ffffffffffffffffffffffffffffffffffffffff1681565b60008073ffffffffffffffffffffffffffffffffffffffff168273ffffffffffffffffffffffffffffffffffffffff161415151561186b57600080fd5b600360008373ffffffffffffffffffffffffffffffffffffffff1673ffffffffffffffffffffffffffffffffffffffff168152602001908152602001600020805490509050919050565b6118bd612f28565b6040805190810160405280600481526020017f4d454d4500000000000000000000000000000000000000000000000000000000815250905090565b600560009054906101000a900473ffffffffffffffffffffffffffffffffffffffff1673ffffffffffffffffffffffffffffffffffffffff163373ffffffffffffffffffffffffffffffffffffffff1614151561195457600080fd5b806000600960008381526020019081526020016000206004015414151561197a57600080fd5b42600960008481526020019081526020016000206004018190555061199e8261241f565b817f9a1b418bc061a5d80270261562e6986a35d995f8051145f277be16103abd345360405160405180910390a25050565b803373ffffffffffffffffffffffffffffffffffffffff166001600083815260200190815260200160002060009054906101000a900473ffffffffffffffffffffffffffffffffffffffff1673ffffffffffffffffffffffffffffffffffffffff16141515611a3d57600080fd5b611a48338484612514565b505050565b600560009054906101000a900473ffffffffffffffffffffffffffffffffffffffff1673ffffffffffffffffffffffffffffffffffffffff163373ffffffffffffffffffffffffffffffffffffffff16141515611aa957600080fd5b80600c8190555050565b3373ffffffffffffffffffffffffffffffffffffffff16611ad382610f38565b73ffffffffffffffffffffffffffffffffffffffff16141515611af557600080fd5b611b336001600083815260200190815260200160002060009054906101000a900473ffffffffffffffffffffffffffffffffffffffff163383612514565b50565b60008160006009600083815260200190815260200160002060040154141515611b5e57600080fd5b6009600084815260200190815260200160002060020154915050919050565b565b611b87612f28565b81600a600060096000848152602001908152602001600020600001546000191660001916815260200190815260200160002060009054906101000a900460ff161515611bd257600080fd5b611c94600d8054600181600116156101000203166002900480601f016020809104026020016040519081016040528092919081815260200182805460018160011615610100020316600290048015611c6b5780601f10611c4057610100808354040283529160200191611c6b565b820191906000526020600020905b815481529060010190602001808311611c4e57829003601f168201915b5050505050611c8f6009600087815260200190815260200160002060000154612189565b612676565b915050919050565b6000600860009054906101000a900460ff16151515611cba57600080fd5b6001600860006101000a81548160ff021916908315150217905550611cde82610d08565b9050611cea8134612856565b8073ffffffffffffffffffffffffffffffffffffffff163373ffffffffffffffffffffffffffffffffffffffff16837f1f6e6edd1693869ced14fb8d1968a37850172b44944bcda1a500593f7a3fa27634604051611d48919061345d565b60405180910390a46000600860006101000a81548160ff0219169083151502179055505050565b60008054905090565b60066020528060005260406000206000915090505481565b611d98612fbc565b600b805480602002602001604051908101604052809291908181526020018280548015611de457602002820191906000526020600020905b815481526020019060010190808311611dd0575b5050505050905090565b6000806000806000600560149054906101000a900460ff16151515611e1257600080fd5b600860009054906101000a900460ff16151515611e2e57600080fd5b6001600860006101000a81548160ff021916908315150217905550611e5286611b36565b94503493508484111515611e6557600080fd5b3073ffffffffffffffffffffffffffffffffffffffff16636352211e876040518263ffffffff167c0100000000000000000000000000000000000000000000000000000000028152600401611eba919061345d565b602060405180830381600087803b1515611ed357600080fd5b5af11515611ee057600080fd5b5050506040518051905092503391508173ffffffffffffffffffffffffffffffffffffffff168373ffffffffffffffffffffffffffffffffffffffff1614151515611f2a57600080fd5b836009600088815260200190815260200160002060020181905550611f6b6002611f5d878761237690919063ffffffff16565b61290a90919063ffffffff16565b9050611f7f611f7987610d08565b82612856565b611f9b83611f96878461292590919063ffffffff16565b612856565b611fa6838388612514565b8173ffffffffffffffffffffffffffffffffffffffff168373ffffffffffffffffffffffffffffffffffffffff16877f0afbd30dcf7237cfe3aa6b3ee7974e963dc565841386971c5f6164c128fa1ccf8888604051612006929190613478565b60405180910390a46000600860006101000a81548160ff021916908315150217905550505050505050565b600560009054906101000a900473ffffffffffffffffffffffffffffffffffffffff1673ffffffffffffffffffffffffffffffffffffffff163373ffffffffffffffffffffffffffffffffffffffff1614151561208d57600080fd5b600073ffffffffffffffffffffffffffffffffffffffff168173ffffffffffffffffffffffffffffffffffffffff16141515156120c957600080fd5b8073ffffffffffffffffffffffffffffffffffffffff16600560009054906101000a900473ffffffffffffffffffffffffffffffffffffffff1673ffffffffffffffffffffffffffffffffffffffff167f8be0079c531659141344cd1fd0a4f28419497f9722a3daafe3b4186f6b6457e060405160405180910390a380600560006101000a81548173ffffffffffffffffffffffffffffffffffffffff021916908373ffffffffffffffffffffffffffffffffffffffff16021790555050565b612191612f28565b612199612ffc565b60008060006121a6612ffc565b60206040518059106121b55750595b9080825280601f01601f1916602001820160405250945060009350600092505b6020831015612293578260080260020a876001900402600102915060007f010000000000000000000000000000000000000000000000000000000000000002827effffffffffffffffffffffffffffffffffffffffffffffffffffffffffffff19161415156122865781858581518110151561224d57fe5b9060200101907effffffffffffffffffffffffffffffffffffffffffffffffffffffffffffff1916908160001a90535083806001019450505b82806001019350506121d5565b836040518059106122a15750595b9080825280601f01601f19166020018201604052509050600092505b838310156123695784838151811015156122d357fe5b9060200101517f010000000000000000000000000000000000000000000000000000000000000090047f010000000000000000000000000000000000000000000000000000000000000002818481518110151561232c57fe5b9060200101907effffffffffffffffffffffffffffffffffffffffffffffffffffffffffffff1916908160001a90535082806001019350506122bd565b8095505050505050919050565b600082821115151561238457fe5b818303905092915050565b600073ffffffffffffffffffffffffffffffffffffffff168273ffffffffffffffffffffffffffffffffffffffff16141515156123cb57600080fd5b6123d58282612943565b808273ffffffffffffffffffffffffffffffffffffffff1660007fddf252ad1be2c89b69c2b068fc378daa952ba7f163c4a11628f55a4df523b3ef60405160405180910390a45050565b803373ffffffffffffffffffffffffffffffffffffffff166001600083815260200190815260200160002060009054906101000a900473ffffffffffffffffffffffffffffffffffffffff1673ffffffffffffffffffffffffffffffffffffffff1614151561248d57600080fd5b600061249883610f38565b73ffffffffffffffffffffffffffffffffffffffff161415156124c0576124bf3383612ae8565b5b6124ca3383612bf2565b8160003373ffffffffffffffffffffffffffffffffffffffff167fddf252ad1be2c89b69c2b068fc378daa952ba7f163c4a11628f55a4df523b3ef60405160405180910390a45050565b600073ffffffffffffffffffffffffffffffffffffffff168273ffffffffffffffffffffffffffffffffffffffff161415151561255057600080fd5b8273ffffffffffffffffffffffffffffffffffffffff168273ffffffffffffffffffffffffffffffffffffffff161415151561258b57600080fd5b8273ffffffffffffffffffffffffffffffffffffffff166001600083815260200190815260200160002060009054906101000a900473ffffffffffffffffffffffffffffffffffffffff1673ffffffffffffffffffffffffffffffffffffffff161415156125f857600080fd5b6126028382612ae8565b61260c8382612bf2565b6126168282612943565b808273ffffffffffffffffffffffffffffffffffffffff168473ffffffffffffffffffffffffffffffffffffffff167fddf252ad1be2c89b69c2b068fc378daa952ba7f163c4a11628f55a4df523b3ef60405160405180910390a4505050565b61267e612f28565b612686612ffc565b61268e612ffc565b612696612f28565b61269e612ffc565b60008088955087945084518651016040518059106126b95750595b9080825280601f01601f1916602001820160405250935083925060009150600090505b855181101561278f5785818151811015156126f357fe5b9060200101517f010000000000000000000000000000000000000000000000000000000000000090047f010000000000000000000000000000000000000000000000000000000000000002838380600101945081518110151561275257fe5b9060200101907effffffffffffffffffffffffffffffffffffffffffffffffffffffffffffff1916908160001a90535080806001019150506126dc565b600090505b84518110156128475784818151811015156127ab57fe5b9060200101517f010000000000000000000000000000000000000000000000000000000000000090047f010000000000000000000000000000000000000000000000000000000000000002838380600101945081518110151561280a57fe5b9060200101907effffffffffffffffffffffffffffffffffffffffffffffffffffffffffffff1916908160001a9053508080600101915050612794565b82965050505050505092915050565b6128a881600660008573ffffffffffffffffffffffffffffffffffffffff1673ffffffffffffffffffffffffffffffffffffffff1681526020019081526020016000205461292590919063ffffffff16565b600660008473ffffffffffffffffffffffffffffffffffffffff1673ffffffffffffffffffffffffffffffffffffffff168152602001908152602001600020819055506129008160075461292590919063ffffffff16565b6007819055505050565b600080828481151561291857fe5b0490508091505092915050565b600080828401905083811015151561293957fe5b8091505092915050565b60008073ffffffffffffffffffffffffffffffffffffffff166001600084815260200190815260200160002060009054906101000a900473ffffffffffffffffffffffffffffffffffffffff1673ffffffffffffffffffffffffffffffffffffffff161415156129b257600080fd5b826001600084815260200190815260200160002060006101000a81548173ffffffffffffffffffffffffffffffffffffffff021916908373ffffffffffffffffffffffffffffffffffffffff160217905550600360008473ffffffffffffffffffffffffffffffffffffffff1673ffffffffffffffffffffffffffffffffffffffff168152602001908152602001600020805490509050600360008473ffffffffffffffffffffffffffffffffffffffff1673ffffffffffffffffffffffffffffffffffffffff1681526020019081526020016000208054806001018281612a9a9190612fd0565b916000526020600020900160008490919091505550806004600084815260200190815260200160002081905550612add600160005461292590919063ffffffff16565b600081905550505050565b8173ffffffffffffffffffffffffffffffffffffffff166001600083815260200190815260200160002060009054906101000a900473ffffffffffffffffffffffffffffffffffffffff1673ffffffffffffffffffffffffffffffffffffffff16141515612b5557600080fd5b60006002600083815260200190815260200160002060006101000a81548173ffffffffffffffffffffffffffffffffffffffff021916908373ffffffffffffffffffffffffffffffffffffffff1602179055508060008373ffffffffffffffffffffffffffffffffffffffff167f8c5be1e5ebec7d5bd14f71427d1e84f3dd0314c0f7b2291e5b200ac8c7c3b92560405160405180910390a45050565b60008060008473ffffffffffffffffffffffffffffffffffffffff166001600086815260200190815260200160002060009054906101000a900473ffffffffffffffffffffffffffffffffffffffff1673ffffffffffffffffffffffffffffffffffffffff16141515612c6457600080fd5b60046000858152602001908152602001600020549250612cd06001600360008873ffffffffffffffffffffffffffffffffffffffff1673ffffffffffffffffffffffffffffffffffffffff1681526020019081526020016000208054905061237690919063ffffffff16565b9150600360008673ffffffffffffffffffffffffffffffffffffffff1673ffffffffffffffffffffffffffffffffffffffff16815260200190815260200160002082815481101515612d1e57fe5b906000526020600020900154905060006001600086815260200190815260200160002060006101000a81548173ffffffffffffffffffffffffffffffffffffffff021916908373ffffffffffffffffffffffffffffffffffffffff16021790555080600360008773ffffffffffffffffffffffffffffffffffffffff1673ffffffffffffffffffffffffffffffffffffffff16815260200190815260200160002084815481101515612dcc57fe5b9060005260206000209001819055506000600360008773ffffffffffffffffffffffffffffffffffffffff1673ffffffffffffffffffffffffffffffffffffffff16815260200190815260200160002083815481101515612e2957fe5b906000526020600020900181905550600360008673ffffffffffffffffffffffffffffffffffffffff1673ffffffffffffffffffffffffffffffffffffffff168152602001908152602001600020805480919060019003612e8a9190613010565b5060006004600086815260200190815260200160002081905550826004600083815260200190815260200160002081905550612ed2600160005461237690919063ffffffff16565b6000819055505050505050565b60a06040519081016040528060008019168152602001600073ffffffffffffffffffffffffffffffffffffffff1681526020016000815260200160008152602001600081525090565b602060405190810160405280600081525090565b828054600181600116156101000203166002900490600052602060002090601f016020900481019282601f10612f7d57805160ff1916838001178555612fab565b82800160010185558215612fab579182015b82811115612faa578251825591602001919060010190612f8f565b5b509050612fb8919061303c565b5090565b602060405190810160405280600081525090565b815481835581811511612ff757818360005260206000209182019101612ff6919061303c565b5b505050565b602060405190810160405280600081525090565b81548183558181151161303757818360005260206000209182019101613036919061303c565b5b505050565b61305e91905b8082111561305a576000816000905550600101613042565b5090565b90565b600061306d8235613575565b905092915050565b60006130818235613595565b905092915050565b6000613095823561359f565b905092915050565b600082601f83011215156130b057600080fd5b81356130c36130be826134ce565b6134a1565b915080825260208301602083018583830111156130df57600080fd5b6130ea8382846135d5565b50505092915050565b60006130ff82356135cb565b905092915050565b60006020828403121561311957600080fd5b600061312784828501613061565b91505092915050565b6000806040838503121561314357600080fd5b600061315185828601613061565b9250506020613162858286016130f3565b9150509250929050565b6000806040838503121561317f57600080fd5b600061318d85828601613075565b925050602061319e85828601613061565b9150509250929050565b6000602082840312156131ba57600080fd5b60006131c884828501613089565b91505092915050565b6000602082840312156131e357600080fd5b600082013567ffffffffffffffff8111156131fd57600080fd5b6132098482850161309d565b91505092915050565b60006020828403121561322457600080fd5b6000613232848285016130f3565b91505092915050565b61324481613535565b82525050565b600061325582613507565b808452602084019350613267836134fa565b60005b828110156132995761327d868351613397565b61328682613528565b915060208601955060018101905061326a565b50849250505092915050565b6132ae81613555565b82525050565b6132bd81613561565b82525050565b60006132ce8261351d565b8084526132e28160208601602086016135e4565b6132eb81613617565b602085010191505092915050565b600061330482613512565b8084526133188160208601602086016135e4565b61332181613617565b602085010191505092915050565b60a08201600082015161334560008501826132b4565b506020820151613358602085018261323b565b50604082015161336b6040850182613397565b50606082015161337e6060850182613397565b5060808201516133916080850182613397565b50505050565b6133a08161356b565b82525050565b60006020820190506133bb600083018461323b565b92915050565b600060208201905081810360008301526133db818461324a565b905092915050565b60006020820190506133f860008301846132a5565b92915050565b6000602082019050818103600083015261341881846132f9565b905092915050565b6000602082019050818103600083015261343a81846132c3565b905092915050565b600060a082019050613457600083018461332f565b92915050565b60006020820190506134726000830184613397565b92915050565b600060408201905061348d6000830185613397565b61349a6020830184613397565b9392505050565b6000604051905081810181811067ffffffffffffffff821117156134c457600080fd5b8060405250919050565b600067ffffffffffffffff8211156134e557600080fd5b601f19601f8301169050602081019050919050565b6000602082019050919050565b600081519050919050565b600081519050919050565b600081519050919050565b6000602082019050919050565b600073ffffffffffffffffffffffffffffffffffffffff82169050919050565b60008115159050919050565b6000819050919050565b6000819050919050565b600073ffffffffffffffffffffffffffffffffffffffff82169050919050565b6000819050919050565b60007fffffffff0000000000000000000000000000000000000000000000000000000082169050919050565b6000819050919050565b82818337600083830152505050565b60005b838110156136025780820151818401526020810190506135e7565b83811115613611576000848401525b50505050565b6000601f19601f83011690509190505600a265627a7a723058205587493f6779b963bb64797931594f1f7a850b7d61c34898e7f25dbc08ca57026c6578706572696d656e74616cf50037",
  "source": "pragma solidity ^0.4.18;\r\npragma experimental ABIEncoderV2;\r\n\r\nimport \"zeppelin/contracts/math/SafeMath.sol\";\r\nimport \"zeppelin/contracts/lifecycle/Pausable.sol\";\r\nimport \"zeppelin/contracts/payment/PullPayment.sol\";\r\nimport \"zeppelin/contracts/ReentrancyGuard.sol\";\r\nimport \"./ERC721Deed.sol\";\r\nimport \"./ERC721Metadata.sol\";\r\n\r\n/*\r\n  Notes on this example implementation:\r\n\r\n  For this example, each deed is associated with a name and a beneficiary, and the concept of \"appropriation\" is introduced: Deeds are permanently up for sale.\r\n  Whoever is willing to pay more than the last price that was paid for a given deed, can take ownership of that deed.\r\n  The previous owner is reimbursed with the amount he paid earlier, and additionally receives half of the amount that the price was increased by. The other half goes to the deed's beneficiary address.\r\n */\r\n\r\ncontract MemeToken is ERC721Deed, Pausable, PullPayment, ReentrancyGuard {\r\n\r\n  using SafeMath for uint256;\r\n\r\n\r\n  /* Events */\r\n\r\n  // When a deed is created by the contract owner.\r\n  event Creation(uint256 indexed id, bytes32 indexed name, address beneficiary);\r\n\r\n  // When a deed is appropriated, the ownership of the deed is transferred to the new owner. The old owner is reimbursed, and he and the deed's beneficiary share the profit of the sale.\r\n  event Appropriation(uint256 indexed id, address indexed oldOwner, uint256 oldPrice, address indexed newOwner, uint256 newPrice);\r\n\r\n  // Payments to the deed's beneficiary address via PullPayment are also supported by this contract.\r\n  event Payment(uint256 indexed id, address indexed sender, address indexed beneficiary, uint256 amount);\r\n\r\n  // When a deed needs to be removed. Payments to benefeciaries are kept available for withdrawal. The contract owner needs to own the deed in order to be able to destroy it. So, deed owners are protected from involuntary loss of the potential reimbursement.\r\n  event Destruction(uint256 indexed id);\r\n\r\n\r\n  /* The actual deeds */\r\n\r\n  // The data structure of the example deed\r\n  struct Example {\r\n    bytes32 name;\r\n    address beneficiary;\r\n    uint256 price;\r\n    uint256 created;\r\n    uint256 deleted;\r\n  }\r\n\r\n  // Mapping from _deedId to Example\r\n  mapping (uint256 => Example) private deeds;\r\n\r\n  // Mapping from deed name to boolean indicating if the name is already taken\r\n  mapping (bytes32 => bool) private deedNameExists;\r\n\r\n  // Needed to make all deeds discoverable. The length of this array also serves as our deed ID.\r\n  uint256[] private deedIds;\r\n\r\n\r\n  /* Variables in control of owner */\r\n\r\n  // The contract owner can change the initial price of deeds at Creation.\r\n  uint256 private creationPrice = 0.01 ether;\r\n\r\n  // The contract owner can change the base URL, in case it becomes necessary. It is needed for Metadata.\r\n  string public url = \"http://example.com/\";\r\n\r\n  // ERC-165 Metadata\r\n  bytes4 internal constant INTERFACE_SIGNATURE_ERC165 = // 0x01ffc9a7\r\n      bytes4(keccak256('supportsInterface(bytes4)'));\r\n\r\n  bytes4 internal constant INTERFACE_SIGNATURE_ERC721 = // 0xda671b9b\r\n      bytes4(keccak256('ownerOf(uint256)')) ^\r\n      bytes4(keccak256('countOfDeeds()')) ^\r\n      bytes4(keccak256('countOfDeedsByOwner(address)')) ^\r\n      bytes4(keccak256('deedOfOwnerByIndex(address,uint256)')) ^\r\n      bytes4(keccak256('approve(address,uint256)')) ^\r\n      bytes4(keccak256('takeOwnership(uint256)'));\r\n\r\n  bytes4 internal constant INTERFACE_SIGNATURE_ERC721Metadata = // 0x2a786f11\r\n      bytes4(keccak256('name()')) ^\r\n      bytes4(keccak256('symbol()')) ^\r\n      bytes4(keccak256('deedUri(uint256)'));\r\n\r\n\r\n  function ExampleDeed() public {}\r\n\r\n  // The contract owner can withdraw funds that were received this way.\r\n  function() public payable {}\r\n\r\n  modifier onlyExistingNames(uint256 _deedId) {\r\n    require(deedNameExists[deeds[_deedId].name]);\r\n    _;\r\n  }\r\n\r\n  modifier noExistingNames(bytes32 _name) {\r\n    require(!deedNameExists[_name]);\r\n    _;\r\n  }\r\n\r\n  modifier notDeleted(uint256 _deedId) {\r\n    require(deeds[_deedId].deleted == 0);\r\n    _;\r\n  }\r\n\r\n\r\n   /* ERC721Metadata */\r\n\r\n  function name()\r\n  external pure returns (string) {\r\n    return \"MemeToken\";\r\n  }\r\n\r\n  function symbol()\r\n  external pure returns (string) {\r\n    return \"MEME\";\r\n  }\r\n\r\n  function supportsInterface(bytes4 _interfaceID)\r\n  external pure returns (bool) {\r\n    return (\r\n      _interfaceID == INTERFACE_SIGNATURE_ERC165\r\n      || _interfaceID == INTERFACE_SIGNATURE_ERC721\r\n      || _interfaceID == INTERFACE_SIGNATURE_ERC721Metadata\r\n    );\r\n  }\r\n\r\n  function deedUri(uint256 _deedId)\r\n  external view onlyExistingNames(_deedId) returns (string _uri) {\r\n    _uri = _strConcat(url, _bytes32ToString(deeds[_deedId].name));\r\n  }\r\n\r\n  function deedName(uint256 _deedId)\r\n  external view onlyExistingNames(_deedId) returns (string _name) {\r\n    _name = _bytes32ToString(deeds[_deedId].name);\r\n  }\r\n\r\n\r\n  /* Enable listing of all deeds (alternative to ERC721Enumerable to avoid having to work with arrays). */\r\n  function ids()\r\n  external view returns (uint256[]) {\r\n    return deedIds;\r\n  }\r\n\r\n  function deed(uint256 _deedId)\r\n  external view returns (Example) {\r\n    return deeds[_deedId];\r\n  }\r\n\r\n\r\n  /* Core features of the example: Appropriation and Payment */\r\n\r\n  // Forces the transfer of the deed to a new owner, if a higher price was paid. This functionality can be paused by the owner.\r\n  function appropriate(uint256 _deedId)\r\n  external whenNotPaused nonReentrant payable {\r\n    // The new price must be greater than the old price.\r\n    uint256 oldPrice = priceOf(_deedId);\r\n    uint256 newPrice = msg.value;\r\n    require(newPrice > oldPrice);\r\n\r\n    // The current owner is forbidden to appropriate himself.\r\n    address oldOwner = this.ownerOf(_deedId);\r\n    address newOwner = msg.sender;\r\n    require(oldOwner != newOwner);\r\n\r\n    // Set new price of the deed.\r\n    deeds[_deedId].price = newPrice;\r\n\r\n    // The profit is split between the previous deed owner and the deed beneficiary in equal parts.\r\n    uint256 profitShare = newPrice.sub(oldPrice).div(2);\r\n\r\n    // The deed beneficiary gets his share.\r\n    asyncSend(beneficiaryOf(_deedId), profitShare);\r\n\r\n    // Reimburse previous owner with his share and the price he paid.\r\n    asyncSend(oldOwner, profitShare.add(oldPrice));\r\n\r\n    // Clear any outstanding approvals and transfer the deed.\r\n    clearApprovalAndTransfer(oldOwner, newOwner, _deedId);\r\n    Appropriation(_deedId, oldOwner, oldPrice, newOwner, newPrice);\r\n  }\r\n\r\n  // Send a PullPayment.\r\n  function pay(uint256 _deedId)\r\n  external nonReentrant payable {\r\n    address beneficiary = beneficiaryOf(_deedId);\r\n    asyncSend(beneficiary, msg.value);\r\n    Payment(_deedId, msg.sender, beneficiary, msg.value);\r\n  }\r\n\r\n  // The owner can only withdraw what has not been assigned to beneficiaries as PullPayments.\r\n  function withdraw()\r\n  external nonReentrant {\r\n    withdrawPayments();\r\n    if (msg.sender == owner) {\r\n      // The contract's balance MUST stay backing the outstanding withdrawals. Only the surplus not needed for any backing can be withdrawn by the owner.\r\n      uint256 surplus = this.balance.sub(totalPayments);\r\n      if (surplus > 0) {\r\n        owner.transfer(surplus);\r\n      }\r\n    }\r\n  }\r\n\r\n\r\n  /* Owner Functions */\r\n\r\n  // The contract owner creates deeds. Newly created deeds are initialised with a name and a beneficiary.\r\n  function create(bytes32 _name, address _beneficiary)\r\n  public onlyOwner noExistingNames(_name) {\r\n    deedNameExists[_name] = true;\r\n    uint256 deedId = deedIds.length;\r\n    deedIds.push(deedId);\r\n    super._mint(owner, deedId);\r\n    deeds[deedId] = Example({\r\n      name: _name,\r\n      beneficiary: _beneficiary,\r\n      price: creationPrice,\r\n      created: now,\r\n      deleted: 0\r\n    });\r\n    Creation(deedId, _name, owner);\r\n  }\r\n\r\n  // Deeds can only be burned if the contract owner is also the deed owner. This ensures that the deed owner is reimbursed when the contract owner needs to remove a deed from the contract.\r\n  function destroy(uint256 _deedId)\r\n  public onlyOwner notDeleted(_deedId) {\r\n    // We deliberately let the name stay in use, so that each name remains a unique identifier forever.\r\n\r\n    // We deliberately let any payments stored for the beneficiary. The contract owner cannot withdraw such deposits.\r\n\r\n    // Iterating over an array of IDs is too expensive, so we mark the deed as deleted instead.\r\n    deeds[_deedId].deleted = now;\r\n\r\n    super._burn(_deedId);\r\n    Destruction(_deedId);\r\n  }\r\n\r\n  function setCreationPrice(uint256 _price)\r\n  public onlyOwner {\r\n    creationPrice = _price;\r\n  }\r\n\r\n  function setUrl(string _url)\r\n  public onlyOwner {\r\n    url = _url;\r\n  }\r\n\r\n  /* Other publicly available functions */\r\n\r\n  // Returns the last paid price for this deed.\r\n  function priceOf(uint256 _deedId)\r\n  public view notDeleted(_deedId) returns (uint256 _price) {\r\n    _price = deeds[_deedId].price;\r\n  }\r\n\r\n  // Returns the current beneficiary of the deed.\r\n  function beneficiaryOf(uint256 _deedId)\r\n  public view notDeleted(_deedId) returns (address _beneficiary) {\r\n    _beneficiary = deeds[_deedId].beneficiary;\r\n  }\r\n\r\n\r\n  /* Private helper functions */\r\n\r\n  function _bytes32ToString(bytes32 _bytes32)\r\n  private pure returns (string) {\r\n    bytes memory bytesString = new bytes(32);\r\n    uint charCount = 0;\r\n    for (uint j = 0; j < 32; j++) {\r\n      byte char = byte(bytes32(uint(_bytes32) * 2 ** (8 * j)));\r\n      if (char != 0) {\r\n        bytesString[charCount] = char;\r\n        charCount++;\r\n      }\r\n    }\r\n    bytes memory bytesStringTrimmed = new bytes(charCount);\r\n    for (j = 0; j < charCount; j++) {\r\n      bytesStringTrimmed[j] = bytesString[j];\r\n    }\r\n\r\n    return string(bytesStringTrimmed);\r\n  }\r\n\r\n  function _strConcat(string _a, string _b)\r\n  private pure returns (string) {\r\n    bytes memory _ba = bytes(_a);\r\n    bytes memory _bb = bytes(_b);\r\n    string memory ab = new string(_ba.length + _bb.length);\r\n    bytes memory bab = bytes(ab);\r\n    uint k = 0;\r\n    for (uint i = 0; i < _ba.length; i++) bab[k++] = _ba[i];\r\n    for (i = 0; i < _bb.length; i++) bab[k++] = _bb[i];\r\n    return string(bab);\r\n  }\r\n\r\n}\r\n",
  "sourcePath": "/mnt/c/meme-machine/contracts/MemeToken.sol",
  "compiler": {
    "name": "solc",
    "version": "0.4.21+commit.dfe3193c.Emscripten.clang"
  },
  "schemaVersion": "2.0.0",
  "updatedAt": "2018-04-02T17:29:19.958Z"
}