{
  "contractName": "PullPayment",
  "abi": [
    {
      "constant": true,
      "inputs": [],
      "name": "totalPayments",
      "outputs": [
        {
          "name": "",
          "type": "uint256"
        }
      ],
      "payable": false,
      "stateMutability": "view",
      "type": "function"
    },
    {
      "constant": true,
      "inputs": [
        {
          "name": "",
          "type": "address"
        }
      ],
      "name": "payments",
      "outputs": [
        {
          "name": "",
          "type": "uint256"
        }
      ],
      "payable": false,
      "stateMutability": "view",
      "type": "function"
    },
    {
      "constant": false,
      "inputs": [],
      "name": "withdrawPayments",
      "outputs": [],
      "payable": false,
      "stateMutability": "nonpayable",
      "type": "function"
    }
  ],
  "bytecode": "0x6060604052341561000f57600080fd5b6102668061001e6000396000f300606060405260043610610056576000357c0100000000000000000000000000000000000000000000000000000000900463ffffffff1680625b44871461005b5780636103d70b14610084578063e2982c2114610099575b600080fd5b341561006657600080fd5b61006e6100e6565b6040518082815260200191505060405180910390f35b341561008f57600080fd5b6100976100ec565b005b34156100a457600080fd5b6100d0600480803573ffffffffffffffffffffffffffffffffffffffff16906020019091905050610209565b6040518082815260200191505060405180910390f35b60015481565b6000803391506000808373ffffffffffffffffffffffffffffffffffffffff1673ffffffffffffffffffffffffffffffffffffffff1681526020019081526020016000205490506000811415151561014357600080fd5b803073ffffffffffffffffffffffffffffffffffffffff16311015151561016957600080fd5b61017e8160015461022190919063ffffffff16565b60018190555060008060008473ffffffffffffffffffffffffffffffffffffffff1673ffffffffffffffffffffffffffffffffffffffff168152602001908152602001600020819055508173ffffffffffffffffffffffffffffffffffffffff166108fc829081150290604051600060405180830381858888f19350505050151561020557fe5b5050565b60006020528060005260406000206000915090505481565b600082821115151561022f57fe5b8183039050929150505600a165627a7a72305820ae6f00a19d2ebf4869e7858c039b305b8dfd9b7196a4a900365718d2cacfd60f0029",
  "source": "pragma solidity ^0.4.11;\r\n\r\n\r\nimport '../math/SafeMath.sol';\r\n\r\n\r\n/**\r\n * @title PullPayment\r\n * @dev Base contract supporting async send for pull payments. Inherit from this\r\n * contract and use asyncSend instead of send.\r\n */\r\ncontract PullPayment {\r\n  using SafeMath for uint256;\r\n\r\n  mapping(address => uint256) public payments;\r\n  uint256 public totalPayments;\r\n\r\n  /**\r\n  * @dev Called by the payer to store the sent amount as credit to be pulled.\r\n  * @param dest The destination address of the funds.\r\n  * @param amount The amount to transfer.\r\n  */\r\n  function asyncSend(address dest, uint256 amount) internal {\r\n    payments[dest] = payments[dest].add(amount);\r\n    totalPayments = totalPayments.add(amount);\r\n  }\r\n\r\n  /**\r\n  * @dev withdraw accumulated balance, called by payee.\r\n  */\r\n  function withdrawPayments() public {\r\n    address payee = msg.sender;\r\n    uint256 payment = payments[payee];\r\n\r\n    require(payment != 0);\r\n    require(this.balance >= payment);\r\n\r\n    totalPayments = totalPayments.sub(payment);\r\n    payments[payee] = 0;\r\n\r\n    assert(payee.send(payment));\r\n  }\r\n}\r\n",
  "sourcePath": "zeppelin/contracts/payment/PullPayment.sol",
  "compiler": {
    "name": "solc",
    "version": "0.4.21+commit.dfe3193c.Emscripten.clang"
  },
  "schemaVersion": "2.0.0",
  "updatedAt": "2018-04-02T17:29:19.966Z"
}