{
  "contractName": "ReentrancyMock",
  "abi": [
    {
      "constant": true,
      "inputs": [],
      "name": "counter",
      "outputs": [
        {
          "name": "",
          "type": "uint256"
        }
      ],
      "payable": false,
      "stateMutability": "view",
      "type": "function"
    },
    {
      "inputs": [],
      "payable": false,
      "stateMutability": "nonpayable",
      "type": "constructor"
    },
    {
      "constant": false,
      "inputs": [],
      "name": "callback",
      "outputs": [],
      "payable": false,
      "stateMutability": "nonpayable",
      "type": "function"
    },
    {
      "constant": false,
      "inputs": [
        {
          "name": "n",
          "type": "uint256"
        }
      ],
      "name": "countLocalRecursive",
      "outputs": [],
      "payable": false,
      "stateMutability": "nonpayable",
      "type": "function"
    },
    {
      "constant": false,
      "inputs": [
        {
          "name": "n",
          "type": "uint256"
        }
      ],
      "name": "countThisRecursive",
      "outputs": [],
      "payable": false,
      "stateMutability": "nonpayable",
      "type": "function"
    },
    {
      "constant": false,
      "inputs": [
        {
          "name": "attacker",
          "type": "address"
        }
      ],
      "name": "countAndCall",
      "outputs": [],
      "payable": false,
      "stateMutability": "nonpayable",
      "type": "function"
    }
  ],
  "bytecode": "0x606060405260008060006101000a81548160ff021916908315150217905550341561002957600080fd5b60006001819055506104c9806100406000396000f30060606040526004361061006d576000357c0100000000000000000000000000000000000000000000000000000000900463ffffffff168063083b27321461007257806361bc221a146100875780638c5344fa146100b057806396ffa690146100d3578063b672ad8b146100f6575b600080fd5b341561007d57600080fd5b61008561012f565b005b341561009257600080fd5b61009a610188565b6040518082815260200191505060405180910390f35b34156100bb57600080fd5b6100d1600480803590602001909190505061018e565b005b34156100de57600080fd5b6100f460048080359060200190919050506102ca565b005b341561010157600080fd5b61012d600480803573ffffffffffffffffffffffffffffffffffffffff1690602001909190505061033a565b005b6000809054906101000a900460ff1615151561014a57600080fd5b60016000806101000a81548160ff02191690831515021790555061016c61048b565b60008060006101000a81548160ff021916908315150217905550565b60015481565b6000806000809054906101000a900460ff161515156101ac57600080fd5b60016000806101000a81548160ff02191690831515021790555060405180807f636f756e74546869735265637572736976652875696e74323536290000000000815250601b0190506040518091039020915060008311156102ab5761020f61048b565b3073ffffffffffffffffffffffffffffffffffffffff16827c01000000000000000000000000000000000000000000000000000000009004600185036040518263ffffffff167c0100000000000000000000000000000000000000000000000000000000028152600401808281526020019150506000604051808303816000875af1925050509050600115158115151415156102aa57600080fd5b5b60008060006101000a81548160ff021916908315150217905550505050565b6000809054906101000a900460ff161515156102e557600080fd5b60016000806101000a81548160ff021916908315150217905550600081111561031d5761031061048b565b61031c600182036102ca565b5b60008060006101000a81548160ff02191690831515021790555050565b60008060009054906101000a900460ff1615151561035757600080fd5b60016000806101000a81548160ff02191690831515021790555061037961048b565b60405180807f63616c6c6261636b282900000000000000000000000000000000000000000000815250600a019050604051809103902090508173ffffffffffffffffffffffffffffffffffffffff16630a2df1ed826040518263ffffffff167c010000000000000000000000000000000000000000000000000000000002815260040180827bffffffffffffffffffffffffffffffffffffffffffffffffffffffff19167bffffffffffffffffffffffffffffffffffffffffffffffffffffffff19168152602001915050600060405180830381600087803b151561045d57600080fd5b5af1151561046a57600080fd5b50505060008060006101000a81548160ff0219169083151502179055505050565b600180600082825401925050819055505600a165627a7a72305820d927bc8f97853e23117a519124f8a6218dc1157fc396da39bb1e0b640bffb4e10029",
  "source": "pragma solidity ^0.4.18;\r\n\r\nimport \"zeppelin/contracts/ReentrancyGuard.sol\";\r\nimport \"./ReentrancyAttack.sol\";\r\n\r\n\r\ncontract ReentrancyMock is ReentrancyGuard {\r\n\r\n  uint256 public counter;\r\n\r\n  function ReentrancyMock() public {\r\n    counter = 0;\r\n  }\r\n\r\n  function callback() external nonReentrant {\r\n    count();\r\n  }\r\n\r\n  function countLocalRecursive(uint256 n) public nonReentrant {\r\n    if (n > 0) {\r\n      count();\r\n      countLocalRecursive(n - 1);\r\n    }\r\n  }\r\n\r\n  function countThisRecursive(uint256 n) public nonReentrant {\r\n    bytes4 func = bytes4(keccak256(\"countThisRecursive(uint256)\"));\r\n    if (n > 0) {\r\n      count();\r\n      bool result = this.call(func, n - 1);\r\n      require(result == true);\r\n    }\r\n  }\r\n\r\n  function countAndCall(ReentrancyAttack attacker) public nonReentrant {\r\n    count();\r\n    bytes4 func = bytes4(keccak256(\"callback()\"));\r\n    attacker.callSender(func);\r\n  }\r\n\r\n  function count() private {\r\n    counter += 1;\r\n  }\r\n\r\n}\r\n",
  "sourcePath": "/mnt/c/meme-machine/contracts/mocks/ReentrancyMock.sol",
  "compiler": {
    "name": "solc",
    "version": "0.4.21+commit.dfe3193c.Emscripten.clang"
  },
  "schemaVersion": "2.0.0",
  "updatedAt": "2018-04-02T17:29:19.964Z"
}