{
  "contractName": "SafeMathMock",
  "abi": [
    {
      "constant": true,
      "inputs": [],
      "name": "result",
      "outputs": [
        {
          "name": "",
          "type": "uint256"
        }
      ],
      "payable": false,
      "stateMutability": "view",
      "type": "function"
    },
    {
      "constant": false,
      "inputs": [
        {
          "name": "a",
          "type": "uint256"
        },
        {
          "name": "b",
          "type": "uint256"
        }
      ],
      "name": "multiply",
      "outputs": [],
      "payable": false,
      "stateMutability": "nonpayable",
      "type": "function"
    },
    {
      "constant": false,
      "inputs": [
        {
          "name": "a",
          "type": "uint256"
        },
        {
          "name": "b",
          "type": "uint256"
        }
      ],
      "name": "subtract",
      "outputs": [],
      "payable": false,
      "stateMutability": "nonpayable",
      "type": "function"
    },
    {
      "constant": false,
      "inputs": [
        {
          "name": "a",
          "type": "uint256"
        },
        {
          "name": "b",
          "type": "uint256"
        }
      ],
      "name": "add",
      "outputs": [],
      "payable": false,
      "stateMutability": "nonpayable",
      "type": "function"
    }
  ],
  "bytecode": "0x6060604052341561000f57600080fd5b6101ec8061001e6000396000f300606060405260043610610062576000357c0100000000000000000000000000000000000000000000000000000000900463ffffffff168063165c4a16146100675780633ef5e4451461009357806365372147146100bf578063771602f7146100e8575b600080fd5b341561007257600080fd5b6100916004808035906020019091908035906020019091905050610114565b005b341561009e57600080fd5b6100bd6004808035906020019091908035906020019091905050610128565b005b34156100ca57600080fd5b6100d261013c565b6040518082815260200191505060405180910390f35b34156100f357600080fd5b6101126004808035906020019091908035906020019091905050610142565b005b61011e8282610156565b6000819055505050565b6101328282610189565b6000819055505050565b60005481565b61014c82826101a2565b6000819055505050565b60008082840290506000841480610177575082848281151561017457fe5b04145b151561017f57fe5b8091505092915050565b600082821115151561019757fe5b818303905092915050565b60008082840190508381101515156101b657fe5b80915050929150505600a165627a7a723058207db818815f2a3d25e293fdc41a3bbaacc6f6512625f387d138be209d62c9d8810029",
  "source": "pragma solidity ^0.4.18;\r\n\r\n\r\nimport \"zeppelin/contracts/math/SafeMath.sol\";\r\n\r\n\r\ncontract SafeMathMock {\r\n  uint256 public result;\r\n\r\n  function multiply(uint256 a, uint256 b) public {\r\n    result = SafeMath.mul(a, b);\r\n  }\r\n\r\n  function subtract(uint256 a, uint256 b) public {\r\n    result = SafeMath.sub(a, b);\r\n  }\r\n\r\n  function add(uint256 a, uint256 b) public {\r\n    result = SafeMath.add(a, b);\r\n  }\r\n}\r\n",
  "sourcePath": "/mnt/c/meme-machine/contracts/mocks/SafeMathMock.sol",
  "compiler": {
    "name": "solc",
    "version": "0.4.21+commit.dfe3193c.Emscripten.clang"
  },
  "schemaVersion": "2.0.0",
  "updatedAt": "2018-04-02T17:29:19.964Z"
}